{
  "abi": [
    {
      "inputs": [
        {
          "internalType": "string",
          "name": "_storeName",
          "type": "string"
        }
      ],
      "stateMutability": "nonpayable",
      "type": "constructor"
    },
    {
      "inputs": [],
      "name": "ItemNotAvailable",
      "type": "error"
    },
    {
      "inputs": [],
      "name": "ItemNotFound",
      "type": "error"
    },
    {
      "inputs": [],
      "name": "NotOwner",
      "type": "error"
    },
    {
      "inputs": [
        {
          "internalType": "string",
          "name": "name",
          "type": "string"
        },
        {
          "internalType": "string",
          "name": "description",
          "type": "string"
        },
        {
          "internalType": "string",
          "name": "imageURL",
          "type": "string"
        },
        {
          "internalType": "uint256",
          "name": "price",
          "type": "uint256"
        }
      ],
      "name": "addInventoryItem",
      "outputs": [],
      "stateMutability": "nonpayable",
      "type": "function"
    },
    {
      "inputs": [
        {
          "internalType": "uint256",
          "name": "id",
          "type": "uint256"
        }
      ],
      "name": "getInventoryItem",
      "outputs": [
        {
          "components": [
            {
              "internalType": "string",
              "name": "name",
              "type": "string"
            },
            {
              "internalType": "string",
              "name": "description",
              "type": "string"
            },
            {
              "internalType": "string",
              "name": "imageURL",
              "type": "string"
            },
            {
              "internalType": "uint256",
              "name": "price",
              "type": "uint256"
            },
            {
              "internalType": "bool",
              "name": "available",
              "type": "bool"
            }
          ],
          "internalType": "struct LetdoItem",
          "name": "",
          "type": "tuple"
        }
      ],
      "stateMutability": "view",
      "type": "function"
    },
    {
      "inputs": [],
      "name": "inventoryLength",
      "outputs": [
        {
          "internalType": "uint256",
          "name": "",
          "type": "uint256"
        }
      ],
      "stateMutability": "view",
      "type": "function"
    },
    {
      "inputs": [],
      "name": "storeName",
      "outputs": [
        {
          "internalType": "string",
          "name": "",
          "type": "string"
        }
      ],
      "stateMutability": "view",
      "type": "function"
    },
    {
      "inputs": [],
      "name": "storeOwner",
      "outputs": [
        {
          "internalType": "address",
          "name": "",
          "type": "address"
        }
      ],
      "stateMutability": "view",
      "type": "function"
    },
    {
      "inputs": [
        {
          "internalType": "uint256",
          "name": "id",
          "type": "uint256"
        }
      ],
      "name": "toggleInventoryItemAvailability",
      "outputs": [],
      "stateMutability": "nonpayable",
      "type": "function"
    }
  ],
  "bytecode": {
    "object": "0x60806040523480156200001157600080fd5b5060405162000cec38038062000cec833981016040819052620000349162000072565b6000620000428282620001d6565b5050600180546001600160a01b03191633179055620002a2565b634e487b7160e01b600052604160045260246000fd5b600060208083850312156200008657600080fd5b82516001600160401b03808211156200009e57600080fd5b818501915085601f830112620000b357600080fd5b815181811115620000c857620000c86200005c565b604051601f8201601f19908116603f01168101908382118183101715620000f357620000f36200005c565b8160405282815288868487010111156200010c57600080fd5b600093505b8284101562000130578484018601518185018701529285019262000111565b600086848301015280965050505050505092915050565b600181811c908216806200015c57607f821691505b6020821081036200017d57634e487b7160e01b600052602260045260246000fd5b50919050565b601f821115620001d157600081815260208120601f850160051c81016020861015620001ac5750805b601f850160051c820191505b81811015620001cd57828155600101620001b8565b5050505b505050565b81516001600160401b03811115620001f257620001f26200005c565b6200020a8162000203845462000147565b8462000183565b602080601f831160018114620002425760008415620002295750858301515b600019600386901b1c1916600185901b178555620001cd565b600085815260208120601f198616915b82811015620002735788860151825594840194600190910190840162000252565b5085821015620002925787850151600019600388901b60f8161c191681555b5050505050600190811b01905550565b610a3a80620002b26000396000f3fe608060405234801561001057600080fd5b50600436106100625760003560e01c80632aab2dc7146100675780634fef2dcf1461007c578063521936e61461009257806370d732ab146100a7578063818fb3e0146100ba578063a5845ac0146100e5575b600080fd5b61007a61007536600461068e565b610105565b005b6002546040519081526020015b60405180910390f35b61009a610201565b60405161008991906106ed565b61007a6100b5366004610750565b61028f565b6001546100cd906001600160a01b031681565b6040516001600160a01b039091168152602001610089565b6100f86100f336600461068e565b6103fd565b60405161008991906107f3565b6001546001600160a01b03163314610130576040516330cd747160e01b815260040160405180910390fd5b60025481906101419060019061086e565b8111156101615760405163d3ed043d60e01b815260040160405180910390fd5b600061016c836103fd565b6080810180511590526002805491925082918590811061018e5761018e610895565b6000918252602090912082516005909202019081906101ad9082610944565b50602082015160018201906101c29082610944565b50604082015160028201906101d79082610944565b50606082015160038201556080909101516004909101805460ff1916911515919091179055505050565b6000805461020e906108c1565b80601f016020809104026020016040519081016040528092919081815260200182805461023a906108c1565b80156102875780601f1061025c57610100808354040283529160200191610287565b820191906000526020600020905b81548152906001019060200180831161026a57829003601f168201915b505050505081565b6001546001600160a01b031633146102ba576040516330cd747160e01b815260040160405180910390fd5b6040805160c06020601f8a01819004028201810190925260a081018881526002928291908b908b9081908501838280828437600092019190915250505090825250604080516020601f8a0181900481028201810190925288815291810191908990899081908401838280828437600092019190915250505090825250604080516020601f8801819004810282018101909252868152918101919087908790819084018382808284376000920182905250938552505050602080830186905260016040909301839052845492830185559381529290922081519192600502019081906103a59082610944565b50602082015160018201906103ba9082610944565b50604082015160028201906103cf9082610944565b50606082015160038201556080909101516004909101805460ff191691151591909117905550505050505050565b6104316040518060a00160405280606081526020016060815260200160608152602001600081526020016000151581525090565b60025482906104429060019061086e565b8111156104625760405163d3ed043d60e01b815260040160405180910390fd5b60006002848154811061047757610477610895565b90600052602060002090600502016040518060a00160405290816000820180546104a0906108c1565b80601f01602080910402602001604051908101604052809291908181526020018280546104cc906108c1565b80156105195780601f106104ee57610100808354040283529160200191610519565b820191906000526020600020905b8154815290600101906020018083116104fc57829003601f168201915b50505050508152602001600182018054610532906108c1565b80601f016020809104026020016040519081016040528092919081815260200182805461055e906108c1565b80156105ab5780601f10610580576101008083540402835291602001916105ab565b820191906000526020600020905b81548152906001019060200180831161058e57829003601f168201915b505050505081526020016002820180546105c4906108c1565b80601f01602080910402602001604051908101604052809291908181526020018280546105f0906108c1565b801561063d5780601f106106125761010080835404028352916020019161063d565b820191906000526020600020905b81548152906001019060200180831161062057829003601f168201915b50505091835250506003820154602082015260049091015460ff161515604090910152608081015190915061068557604051633c1c65a160e21b815260040160405180910390fd5b91505b50919050565b6000602082840312156106a057600080fd5b5035919050565b6000815180845260005b818110156106cd576020818501810151868301820152016106b1565b506000602082860101526020601f19601f83011685010191505092915050565b60208152600061070060208301846106a7565b9392505050565b60008083601f84011261071957600080fd5b50813567ffffffffffffffff81111561073157600080fd5b60208301915083602082850101111561074957600080fd5b9250929050565b60008060008060008060006080888a03121561076b57600080fd5b873567ffffffffffffffff8082111561078357600080fd5b61078f8b838c01610707565b909950975060208a01359150808211156107a857600080fd5b6107b48b838c01610707565b909750955060408a01359150808211156107cd57600080fd5b506107da8a828b01610707565b989b979a50959894979596606090950135949350505050565b602081526000825160a0602084015261080f60c08401826106a7565b90506020840151601f198085840301604086015261082d83836106a7565b925060408601519150808584030160608601525061084b82826106a7565b915050606084015160808401526080840151151560a08401528091505092915050565b8181038181111561088f57634e487b7160e01b600052601160045260246000fd5b92915050565b634e487b7160e01b600052603260045260246000fd5b634e487b7160e01b600052604160045260246000fd5b600181811c908216806108d557607f821691505b60208210810361068857634e487b7160e01b600052602260045260246000fd5b601f82111561093f57600081815260208120601f850160051c8101602086101561091c5750805b601f850160051c820191505b8181101561093b57828155600101610928565b5050505b505050565b815167ffffffffffffffff81111561095e5761095e6108ab565b6109728161096c84546108c1565b846108f5565b602080601f8311600181146109a7576000841561098f5750858301515b600019600386901b1c1916600185901b17855561093b565b600085815260208120601f198616915b828110156109d6578886015182559484019460019091019084016109b7565b50858210156109f45787850151600019600388901b60f8161c191681555b5050505050600190811b0190555056fea2646970667358221220349e982ec799f0e2715576098f95f12ba37ac223ea5829f3cb4c59654dcee82064736f6c63430008110033",
    "linkReferences": {}
  },
  "methodIdentifiers": {
    "addInventoryItem(string,string,string,uint256)": "70d732ab",
    "getInventoryItem(uint256)": "a5845ac0",
    "inventoryLength()": "4fef2dcf",
    "storeName()": "521936e6",
    "storeOwner()": "818fb3e0",
    "toggleInventoryItemAvailability(uint256)": "2aab2dc7"
  },
  "id": 14
}